{
  "_format": "hh-sol-artifact-1",
  "contractName": "DClips",
  "sourceName": "contracts/DClips.sol",
  "abi": [
    {
      "inputs": [],
      "stateMutability": "nonpayable",
      "type": "constructor"
    },
    {
      "anonymous": false,
      "inputs": [
        {
          "indexed": false,
          "internalType": "uint256",
          "name": "id",
          "type": "uint256"
        },
        {
          "indexed": false,
          "internalType": "string",
          "name": "hash",
          "type": "string"
        },
        {
          "indexed": false,
          "internalType": "string",
          "name": "title",
          "type": "string"
        },
        {
          "indexed": false,
          "internalType": "string",
          "name": "description",
          "type": "string"
        },
        {
          "indexed": false,
          "internalType": "string",
          "name": "location",
          "type": "string"
        },
        {
          "indexed": false,
          "internalType": "string",
          "name": "category",
          "type": "string"
        },
        {
          "indexed": false,
          "internalType": "string",
          "name": "thumbnailHash",
          "type": "string"
        },
        {
          "indexed": false,
          "internalType": "string",
          "name": "date",
          "type": "string"
        },
        {
          "indexed": false,
          "internalType": "address",
          "name": "author",
          "type": "address"
        }
      ],
      "name": "VideoUploaded",
      "type": "event"
    },
    {
      "inputs": [],
      "name": "EPNS_COMM_ADDRESS",
      "outputs": [
        {
          "internalType": "address",
          "name": "",
          "type": "address"
        }
      ],
      "stateMutability": "view",
      "type": "function"
    },
    {
      "inputs": [
        {
          "internalType": "string",
          "name": "a",
          "type": "string"
        },
        {
          "internalType": "string",
          "name": "b",
          "type": "string"
        }
      ],
      "name": "concatenate",
      "outputs": [
        {
          "internalType": "string",
          "name": "",
          "type": "string"
        }
      ],
      "stateMutability": "pure",
      "type": "function"
    },
    {
      "inputs": [],
      "name": "name",
      "outputs": [
        {
          "internalType": "string",
          "name": "",
          "type": "string"
        }
      ],
      "stateMutability": "view",
      "type": "function"
    },
    {
      "inputs": [
        {
          "internalType": "string",
          "name": "_videoHash",
          "type": "string"
        },
        {
          "internalType": "string",
          "name": "_title",
          "type": "string"
        },
        {
          "internalType": "string",
          "name": "_description",
          "type": "string"
        },
        {
          "internalType": "string",
          "name": "_location",
          "type": "string"
        },
        {
          "internalType": "string",
          "name": "_category",
          "type": "string"
        },
        {
          "internalType": "string",
          "name": "_thumbnailHash",
          "type": "string"
        },
        {
          "internalType": "string",
          "name": "_date",
          "type": "string"
        }
      ],
      "name": "uploadVideo",
      "outputs": [],
      "stateMutability": "nonpayable",
      "type": "function"
    },
    {
      "inputs": [],
      "name": "videoCount",
      "outputs": [
        {
          "internalType": "uint256",
          "name": "",
          "type": "uint256"
        }
      ],
      "stateMutability": "view",
      "type": "function"
    },
    {
      "inputs": [
        {
          "internalType": "uint256",
          "name": "",
          "type": "uint256"
        }
      ],
      "name": "videos",
      "outputs": [
        {
          "internalType": "uint256",
          "name": "id",
          "type": "uint256"
        },
        {
          "internalType": "string",
          "name": "hash",
          "type": "string"
        },
        {
          "internalType": "string",
          "name": "title",
          "type": "string"
        },
        {
          "internalType": "string",
          "name": "description",
          "type": "string"
        },
        {
          "internalType": "string",
          "name": "location",
          "type": "string"
        },
        {
          "internalType": "string",
          "name": "category",
          "type": "string"
        },
        {
          "internalType": "string",
          "name": "thumbnailHash",
          "type": "string"
        },
        {
          "internalType": "string",
          "name": "date",
          "type": "string"
        },
        {
          "internalType": "address",
          "name": "author",
          "type": "address"
        }
      ],
      "stateMutability": "view",
      "type": "function"
    }
  ],
  "bytecode": "0x6080604052600080556040518060400160405280600681526020017f44436c69707300000000000000000000000000000000000000000000000000008152506001908051906020019062000055929190620000bf565b5073b3971bcef2d791bc4027bbfedfb47319a4aaaaaa600360006101000a81548173ffffffffffffffffffffffffffffffffffffffff021916908373ffffffffffffffffffffffffffffffffffffffff160217905550348015620000b857600080fd5b50620001d4565b828054620000cd906200019e565b90600052602060002090601f016020900481019282620000f157600085556200013d565b82601f106200010c57805160ff19168380011785556200013d565b828001600101855582156200013d579182015b828111156200013c5782518255916020019190600101906200011f565b5b5090506200014c919062000150565b5090565b5b808211156200016b57600081600090555060010162000151565b5090565b7f4e487b7100000000000000000000000000000000000000000000000000000000600052602260045260246000fd5b60006002820490506001821680620001b757607f821691505b60208210811415620001ce57620001cd6200016f565b5b50919050565b61160f80620001e46000396000f3fe608060405234801561001057600080fd5b50600436106100625760003560e01c806306fdde0314610067578063266001d31461008557806348a3b4a4146100b5578063a1df8fa4146100d3578063c61b5f4c146100ef578063e6821bf51461010d575b600080fd5b61006f610145565b60405161007c9190610d58565b60405180910390f35b61009f600480360381019061009a9190610ec3565b6101d3565b6040516100ac9190610d58565b60405180910390f35b6100bd6101ff565b6040516100ca9190610f7c565b60405180910390f35b6100ed60048036038101906100e89190610f97565b610225565b005b6100f76105c5565b6040516101049190611116565b60405180910390f35b6101276004803603810190610122919061115d565b6105cb565b60405161013c9998979695949392919061118a565b60405180910390f35b6001805461015290611277565b80601f016020809104026020016040519081016040528092919081815260200182805461017e90611277565b80156101cb5780601f106101a0576101008083540402835291602001916101cb565b820191906000526020600020905b8154815290600101906020018083116101ae57829003601f168201915b505050505081565b606082826040516020016101e8929190611331565b604051602081830303815290604052905092915050565b600360009054906101000a900473ffffffffffffffffffffffffffffffffffffffff1681565b600087511161023357600080fd5b600086511161024157600080fd5b600073ffffffffffffffffffffffffffffffffffffffff163373ffffffffffffffffffffffffffffffffffffffff16141561027b57600080fd5b60008081548092919061028d9061138f565b919050555060405180610120016040528060005481526020018881526020018781526020018681526020018581526020018481526020018381526020018281526020013373ffffffffffffffffffffffffffffffffffffffff168152506002600080548152602001908152602001600020600082015181600001556020820151816001019080519060200190610324929190610c1c565b506040820151816002019080519060200190610341929190610c1c565b50606082015181600301908051906020019061035e929190610c1c565b50608082015181600401908051906020019061037b929190610c1c565b5060a0820151816005019080519060200190610398929190610c1c565b5060c08201518160060190805190602001906103b5929190610c1c565b5060e08201518160070190805190602001906103d2929190610c1c565b506101008201518160080160006101000a81548173ffffffffffffffffffffffffffffffffffffffff021916908373ffffffffffffffffffffffffffffffffffffffff160217905550905050600360009054906101000a900473ffffffffffffffffffffffffffffffffffffffff1673ffffffffffffffffffffffffffffffffffffffff1663ba3d69d7730746836407abb3b89d00bd04041efd84c6b1eb98336104b16040518060400160405280601381526020017f4e657720566964656f2055706c6f616465643a000000000000000000000000008152508b6101d3565b6105038a6104fe6040518060400160405280600d81526020017f566964656f204e756d6265723a000000000000000000000000000000000000008152506104f96000546109f1565b6101d3565b6101d3565b6040516020016105149291906114bc565b6040516020818303038152906040526040518463ffffffff1660e01b81526004016105419392919061156c565b600060405180830381600087803b15801561055b57600080fd5b505af115801561056f573d6000803e3d6000fd5b505050507f0b0639108adcb9c8f8ce68f9c4abb1e07cd8fa50cc559b5a55a875a79b579f4660005488888888888888336040516105b49998979695949392919061118a565b60405180910390a150505050505050565b60005481565b60026020528060005260406000206000915090508060000154908060010180546105f490611277565b80601f016020809104026020016040519081016040528092919081815260200182805461062090611277565b801561066d5780601f106106425761010080835404028352916020019161066d565b820191906000526020600020905b81548152906001019060200180831161065057829003601f168201915b50505050509080600201805461068290611277565b80601f01602080910402602001604051908101604052809291908181526020018280546106ae90611277565b80156106fb5780601f106106d0576101008083540402835291602001916106fb565b820191906000526020600020905b8154815290600101906020018083116106de57829003601f168201915b50505050509080600301805461071090611277565b80601f016020809104026020016040519081016040528092919081815260200182805461073c90611277565b80156107895780601f1061075e57610100808354040283529160200191610789565b820191906000526020600020905b81548152906001019060200180831161076c57829003601f168201915b50505050509080600401805461079e90611277565b80601f01602080910402602001604051908101604052809291908181526020018280546107ca90611277565b80156108175780601f106107ec57610100808354040283529160200191610817565b820191906000526020600020905b8154815290600101906020018083116107fa57829003601f168201915b50505050509080600501805461082c90611277565b80601f016020809104026020016040519081016040528092919081815260200182805461085890611277565b80156108a55780601f1061087a576101008083540402835291602001916108a5565b820191906000526020600020905b81548152906001019060200180831161088857829003601f168201915b5050505050908060060180546108ba90611277565b80601f01602080910402602001604051908101604052809291908181526020018280546108e690611277565b80156109335780601f1061090857610100808354040283529160200191610933565b820191906000526020600020905b81548152906001019060200180831161091657829003601f168201915b50505050509080600701805461094890611277565b80601f016020809104026020016040519081016040528092919081815260200182805461097490611277565b80156109c15780601f10610996576101008083540402835291602001916109c1565b820191906000526020600020905b8154815290600101906020018083116109a457829003601f168201915b5050505050908060080160009054906101000a900473ffffffffffffffffffffffffffffffffffffffff16905089565b606060006001610a0084610ac9565b01905060008167ffffffffffffffff811115610a1f57610a1e610d98565b5b6040519080825280601f01601f191660200182016040528015610a515781602001600182028036833780820191505090505b509050600082602001820190505b600115610abe578080600190039150507f3031323334353637383961626364656600000000000000000000000000000000600a86061a8153600a8581610aa857610aa76115aa565b5b0494506000851415610ab957610abe565b610a5f565b819350505050919050565b600080600090507a184f03e93ff9f4daa797ed6e38ed64bf6a1f0100000000000000008310610b27577a184f03e93ff9f4daa797ed6e38ed64bf6a1f0100000000000000008381610b1d57610b1c6115aa565b5b0492506040810190505b6d04ee2d6d415b85acef81000000008310610b64576d04ee2d6d415b85acef81000000008381610b5a57610b596115aa565b5b0492506020810190505b662386f26fc100008310610b9357662386f26fc100008381610b8957610b886115aa565b5b0492506010810190505b6305f5e1008310610bbc576305f5e1008381610bb257610bb16115aa565b5b0492506008810190505b6127108310610be1576127108381610bd757610bd66115aa565b5b0492506004810190505b60648310610c045760648381610bfa57610bf96115aa565b5b0492506002810190505b600a8310610c13576001810190505b80915050919050565b828054610c2890611277565b90600052602060002090601f016020900481019282610c4a5760008555610c91565b82601f10610c6357805160ff1916838001178555610c91565b82800160010185558215610c91579182015b82811115610c90578251825591602001919060010190610c75565b5b509050610c9e9190610ca2565b5090565b5b80821115610cbb576000816000905550600101610ca3565b5090565b600081519050919050565b600082825260208201905092915050565b60005b83811015610cf9578082015181840152602081019050610cde565b83811115610d08576000848401525b50505050565b6000601f19601f8301169050919050565b6000610d2a82610cbf565b610d348185610cca565b9350610d44818560208601610cdb565b610d4d81610d0e565b840191505092915050565b60006020820190508181036000830152610d728184610d1f565b905092915050565b6000604051905090565b600080fd5b600080fd5b600080fd5b600080fd5b7f4e487b7100000000000000000000000000000000000000000000000000000000600052604160045260246000fd5b610dd082610d0e565b810181811067ffffffffffffffff82111715610def57610dee610d98565b5b80604052505050565b6000610e02610d7a565b9050610e0e8282610dc7565b919050565b600067ffffffffffffffff821115610e2e57610e2d610d98565b5b610e3782610d0e565b9050602081019050919050565b82818337600083830152505050565b6000610e66610e6184610e13565b610df8565b905082815260208101848484011115610e8257610e81610d93565b5b610e8d848285610e44565b509392505050565b600082601f830112610eaa57610ea9610d8e565b5b8135610eba848260208601610e53565b91505092915050565b60008060408385031215610eda57610ed9610d84565b5b600083013567ffffffffffffffff811115610ef857610ef7610d89565b5b610f0485828601610e95565b925050602083013567ffffffffffffffff811115610f2557610f24610d89565b5b610f3185828601610e95565b9150509250929050565b600073ffffffffffffffffffffffffffffffffffffffff82169050919050565b6000610f6682610f3b565b9050919050565b610f7681610f5b565b82525050565b6000602082019050610f916000830184610f6d565b92915050565b600080600080600080600060e0888a031215610fb657610fb5610d84565b5b600088013567ffffffffffffffff811115610fd457610fd3610d89565b5b610fe08a828b01610e95565b975050602088013567ffffffffffffffff81111561100157611000610d89565b5b61100d8a828b01610e95565b965050604088013567ffffffffffffffff81111561102e5761102d610d89565b5b61103a8a828b01610e95565b955050606088013567ffffffffffffffff81111561105b5761105a610d89565b5b6110678a828b01610e95565b945050608088013567ffffffffffffffff81111561108857611087610d89565b5b6110948a828b01610e95565b93505060a088013567ffffffffffffffff8111156110b5576110b4610d89565b5b6110c18a828b01610e95565b92505060c088013567ffffffffffffffff8111156110e2576110e1610d89565b5b6110ee8a828b01610e95565b91505092959891949750929550565b6000819050919050565b611110816110fd565b82525050565b600060208201905061112b6000830184611107565b92915050565b61113a816110fd565b811461114557600080fd5b50565b60008135905061115781611131565b92915050565b60006020828403121561117357611172610d84565b5b600061118184828501611148565b91505092915050565b6000610120820190506111a0600083018c611107565b81810360208301526111b2818b610d1f565b905081810360408301526111c6818a610d1f565b905081810360608301526111da8189610d1f565b905081810360808301526111ee8188610d1f565b905081810360a08301526112028187610d1f565b905081810360c08301526112168186610d1f565b905081810360e083015261122a8185610d1f565b905061123a610100830184610f6d565b9a9950505050505050505050565b7f4e487b7100000000000000000000000000000000000000000000000000000000600052602260045260246000fd5b6000600282049050600182168061128f57607f821691505b602082108114156112a3576112a2611248565b5b50919050565b600081905092915050565b60006112bf82610cbf565b6112c981856112a9565b93506112d9818560208601610cdb565b80840191505092915050565b7f2000000000000000000000000000000000000000000000000000000000000000600082015250565b600061131b6001836112a9565b9150611326826112e5565b600182019050919050565b600061133d82856112b4565b91506113488261130e565b915061135482846112b4565b91508190509392505050565b7f4e487b7100000000000000000000000000000000000000000000000000000000600052601160045260246000fd5b600061139a826110fd565b91507fffffffffffffffffffffffffffffffffffffffffffffffffffffffffffffffff8214156113cd576113cc611360565b5b600182019050919050565b7f3000000000000000000000000000000000000000000000000000000000000000600082015250565b600061140e6001836112a9565b9150611419826113d8565b600182019050919050565b7f2b00000000000000000000000000000000000000000000000000000000000000600082015250565b600061145a6001836112a9565b915061146582611424565b600182019050919050565b7f3100000000000000000000000000000000000000000000000000000000000000600082015250565b60006114a66001836112a9565b91506114b182611470565b600182019050919050565b60006114c782611401565b91506114d28261144d565b91506114dd82611499565b91506114e88261144d565b91506114f482856112b4565b91506114ff8261144d565b915061150b82846112b4565b91508190509392505050565b600081519050919050565b600082825260208201905092915050565b600061153e82611517565b6115488185611522565b9350611558818560208601610cdb565b61156181610d0e565b840191505092915050565b60006060820190506115816000830186610f6d565b61158e6020830185610f6d565b81810360408301526115a08184611533565b9050949350505050565b7f4e487b7100000000000000000000000000000000000000000000000000000000600052601260045260246000fdfea26469706673582212201be58cf619e868776f850aaa8b522ba6b5d76f4567eeb4c68afa2030e60ae8b964736f6c63430008090033",
  "linkReferences": {},
  "deployedLinkReferences": {}
}